:020000040800F2
:1000000000040020255B000807C2010807C20108A0
:1000100007C2010807C2010807C2010807C2010898
:1000200007C2010807C2010807C2010807C2010888
:1000300007C2010807C20108A1D5000807C20108CC
:1000400007C2010807C2010807C2010807C2010868
:1000500007C2010807C2010807C2010807C2010858
:1000600007C2010807C2010807C2010807C2010848
:1000700007C2010807C2010807C2010807C2010838
:1000800007C2010807C2010807C2010807C2010828
:100090002154000859C1010807C2010807C201081C
:1000A00007C2010807C2010807C2010807C2010808
:1000B000E561000807C2010807C2010807C201087C
:1000C00007C2010807C2010807C20108B59D000860
:1000D00007C2010807C2010807C20108C199000848
:1000E000A199000807C2010807C2010807C2010858
:1000F00007C2010807C2010807C2010807C20108B8
:1001000007C2010807C2010807C2010807C20108A7
:1001100007C2010807C2010807C2010807C2010897
:1001200007C2010807C2010807C2010807C2010887
:1001300017CB010807C2010807C2010807C201085E
:1001400007C2010807C2010807C2010807C2010867
:1001500007C2010807C2010807C2010807C2010857
:1001600007C2010807C2010807C2010807C2010847
:1001700007C2010807C2010807C2010807C2010837
:1001800007C2010807C2010807C20108EB190208EB
:1001900007C2010807C2010807C2010807C2010817
:1001A00007C2010807C2010807C2010807C2010807
:0401B00007C2010879
:1001C000013800D0FCE7704738B505462B68084673
:1001D000C2E90031144617F0D7FD41EC100B00F0D6
:1001E000F7FE19A3D3E9002351EC100B17F060FFC1
:1001F00041EC100B01F080F951EC100B18F0C8F82D
:10020000D5ED017AFEEECC7A17EE903AD5ED027A72
:10021000FEEECC7AA38317EE903AD5ED037AFEEE8C
:10022000CA7AE38317EE903AD5ED047AFEEECA7AE5
:10023000238417EE903A63840023A060C4E9053359
:10024000C4E9033338BD00BFEF39FAFE422EE63F62
:1002500008B510EE100A17F0A9FD00220C4B17F09C
:1002600027FF41EC100B00F0F7FE07A3D3E90023B2
:1002700051EC100B17F0F2FD18F0D2F800EE100A56
:1002800008BD00BFAFF3008000000000009C91405B
:1002900000E08540000000004FF47A732DE9F04F34
:1002A00005682DED028B5543B5FBF3F50C460D604B
:1002B00041684FEA450A4A43B2FBF3F2504683B025
:1002C000A26018F021FC0746606058B9424B4348D1
:1002D0001B68D96818F0ECFC002003B0BDEC028B61
:1002E000BDE8F08F07EE905AF8EEE77A17EE900A25
:1002F00017F05CFD02460B4635A1D1E9000117F06D
:10030000D7FE18F08DF8002683464FF000089FEDC9
:10031000348ADFF8D890B5420CDC002350462361C4
:1003200018F0F2FBE060002844D12B4B2D481B68ED
:10033000D968CFE7304617F027FD42464B4617F005
:10034000D7FBCDE90001584617F030FD02460B46B9
:10035000DDE9000117F082FD18F062F800EE100AE6
:1003600019F0BEF810EE100A17F020FD42464B4679
:1003700017F074FD02460B464046494617F0B6FB9F
:1003800018F04EF807EE900A67EE887A17EE900A9A
:1003900017F00CFD42464B4617F0AAFB41EC100B40
:1003A00001F02AF951EC100B17F0F2FF27F81600B4
:1003B0000136B0E7504618F0A7FB606120B9064B44
:1003C00009481B68D96885E7012086E7AFF30080FC
:1003D000182D4454FB21194018A80320DA1D0208E7
:1003E00000008045021E0208231E02080000E03FB4
:1003F00038B50022164B51EC100B17F02FFD10A34F
:10040000D3E9002304460D4617F0B8FF70B90EA3D8
:10041000D3E900232046294617F092FF58B9204619
:10042000294618F033FB00EE100A38BD47F6FF33BB
:1004300000EE103AF9E74FF6FF33F9E7AFF300802B
:100440000000000000FCEF400000000000FCEFC0D6
:100450000000E040000000002DE9F04F93B0CDE92E
:100460000A32DDE91C530E9353EC102BCDE9080141
:10047000104619468DED060B1E9E17F057FF80B1F2
:10048000DDE906014FF0FF32C54B17F077FF40B9A9
:10049000DDE906014FF0FF326FF4801317F050FFD3
:1004A00070B1DDE908019DED060B0E9B1E96CDE9AE
:1004B0001C53DDE90A3213B0BDE8F04F00F088B9F3
:1004C0000022DDE90601002317F03AFF002800F0C2
:1004D0003381DDE906A303F1004BCBF30A5016F498
:1004E0008063A0F2FF3008BF06250F9317F04CFC85
:1004F0009BA3D3E9002317F0B1FC9BA3D3E900230E
:1005000017F0F6FACBF31304894644F07F51804686
:100510000022A44B504641F4401117F0E7FA94A38F
:10052000D3E9002317F09AFC02460B4640464946A1
:1005300017F0DEFA17F02CFF044617F025FC8EA307
:10054000D3E900238046894617F088FC0022964BA9
:1005500017F0CEFA17F01CFF89A3D3E90023074652
:100560004946404617F07AFC80463846894617F0DF
:100570000BFC85A3D3E9002317F070FC02460B4661
:100580004046494617F0B2FA02460B46CDE90C2325
:1005900017F064FCDDE90C238046894610461946B5
:1005A00017F0A6FA0022CDE91001804B40464946DB
:1005B00017F07EFD00227E4B17F09AFA02460B469A
:1005C0004046494617F074FD00227A4B17F090FA26
:1005D00002460B464046494617F06AFDDDE90C230A
:1005E0008046894600204FF0804117F07FFA02468E
:1005F0000B464046494617F07BFA02460B46DDE9BA
:10060000100117F055FD07F2FF3700226A4B17F073
:100610006FFA00223B0517F021FC52465B468046EC
:10062000894617F0ABFE002840F08980CDE90C899F
:1006300004F16303C72B34BF0427052731051BD5FD
:1006400053A3D3E900235046594617F08DFE0028E6
:100650007FD051A3D3E900235046594617F070FECE
:10066000002876D00027A542C6BF2C1B04F1FF3519
:1006700000253C4646F480660E9B9F422CBF4FF0FF
:100680000008A3EB070816F0020903D0002F18BFDB
:100690004FF000083CB1DDE90C235046594617F0F5
:1006A00007FD82468B46DDE906010022002317F094
:1006B00047FE10B10BF100439B46DDE9080126F42B
:1006C0000063CDE90183DDE90A324BEC10AB009504
:1006D00000F07EF802465FB3DDE9091316F0200F43
:1006E00000F10105089E0CBF65204520B047DDE9FB
:1006F00008010523002205930A23002CCDE90232CC
:1007000007F1FF374FEAD473B8BF64422A4601931A
:1007100004970A9B00941CF040FD0246B9F1000FBB
:1007200006D00B9BC41A0B9B1A190E9BA34245D8EB
:10073000104613B0BDE8F08FDDE906ABCDE6002230
:10074000404649461A4B17F0B3FC013CCDE90C0179
:100750006EE7002D90D00F9B002B8DD0013D8BE7D5
:10076000FB799F501344D33FB3C8608B288AC63FA0
:1007700061436F63A787D23F71A379094F930A4002
:100780001655B5BBB16B0240EF39FAFE422EE63F7B
:100790002D431CEBE2361A3F0000000080842E41FE
:1007A000FFFFEF7F0000F83F0000E03F00002C401B
:1007B00000002440000018400000F03F2020DDE948
:1007C0000913089DA8470134ADE700BF00000000F1
:1007D0002DE9F04F5BEC10AB97B0CDE90501DDE9F9
:1007E0002057CDE90723504652465B465946229E84
:1007F00017F09CFD70B90323CDE902760193B04B4D
:100800000093DDE90501DDE907231CF0E6FB17B0E5
:10081000BDE8F08F4FF0FF326FF480135046594619
:1008200017F08EFD28B10423CDE902760193A54B84
:10083000E6E74FF0FF3250465946A34B17F09EFDB6
:1008400068B1A24A06F00403002B08BF0322A04BA4
:100850001CBF13460422CDE902760192D0E7504630
:1008600093A3D3E90023594617F088FD38B992A322
:10087000D3E900235046594617F062FD68B1DDE91F
:100880000723DDE905014BEC10ABCDE9217620957E
:1008900017B0BDE8F04FFFF7DFBD00220023504640
:1008A000594617F04DFD002800F09A805B465246ED
:1008B0000020002117F01AF9012382468B46099384
:1008C00016F4806400F08E80092D40F28E800024A2
:1008D00030210EABA5F109020134202C03F8011BD5
:1008E000A5EB040901D09442F6D15946504617F0C1
:1008F0004FFD784B054603EBC90393ED007B8DED6F
:100900000A7B17F041FA02460B465046594617F04B
:10091000EDF8DDE90A2317F0A1FA02460B46CDE90E
:100920000C2317F05DFD804617F01EFA02460B46B9
:10093000DDE90C0117F0DAF802460B46CDE90C238D
:100940000022654B17F01AFD002851D008F101086C
:10095000404617F009FA02460B46DDE90A0117F096
:10096000F9FC10B14FF000080135B9F1000F50D17A
:10097000284617F009FA02460B465046594617F02A
:10098000B5F80022544B8046894617F0D9FC30B1A7
:10099000002240464946504B17F0F0FC10B1E807E2
:1009A00000D501350A210EAB1A19202C0AD095FB6F
:1009B000F1F001FB1055303502F8015B01340546BA
:1009C0000028F2D106F00302012A57D1002F55D09A
:1009D000099A12B916F00C0F00D0013F302245E001
:1009E00009906DE74FF006097FE7A94600247CE7F0
:1009F0000022DDE90C01384B17F0A2FC0028B4D12D
:100A0000B8F1000F02D018F0010FAED008F10108C4
:100A1000ABE70A210EAB2344202C0ED0B8FBF1F03B
:100A200001FB1082B8F1090F02F1300209F1FF3920
:100A300004F1010403F8012B11D83021A1440EAABE
:100A4000202CAFD0A14504F101030AD11C4609F1C5
:100A500058030DEB03092E2309F8203CA2E780463A
:100A6000DAE7A1541C46EBE71A550134A74205D931
:100A7000202CF9D1CDE902760194C1E6202CF9D0E1
:100A8000099A3AB12D2104F158026A4402F8201C57
:100A90000134EFE7710704D504F158022B216A44B1
:100AA000F4E73207E6D504F1580220216A44EDE765
:100AB0000000000065CDCD410000000065CDCDC136
:100AC000951C0A08991C0A08FFFFEF7F8C1C0A0876
:100AD000911C0A08A01C0A080000E03F000000006A
:100AE0002DE9F74F0446DDE90C7B886816469A46E7
:100AF0000D4617F05BF98046B068894617F056F945
:100B000002460B464046494617F0A8F980468946FA
:100B1000BAF1000F1BD0DAF8080017F047F90246C7
:100B20000B464046494616F0E1FF8046B86821F082
:100B3000004917F03BF902460B464046494617F07C
:100B4000B7FA12A3D3E9002317F004FC50B13B46D7
:100B5000324629462046CDF830B003B0BDE8F04F0C
:100B60000FF01ABC064B20460093656940F245130E
:100B7000044A0549A847012003B0BDE8F08F00BF33
:100B8000371F0A08801E0A08492002087B14AE4756
:100B9000E17A943F000000002DE9F84F4FF0004348
:100BA0002DED028B23FA00F057EC106B59EC118BF2
:100BB00093468A4617F0E8F8424604460D464B46EF
:100BC0003046394617F04AF902460B462046294678
:100BD00017F044F902460B4643EC182B0AA3D3E95D
:100BE000002317F0CBFB08B19FED078B5946504609
:100BF000B0EE480AF0EE680ABDEC028BBDE8F84F93
:100C00000FF016BEAFF300800000C0FFFFFFDF4112
:100C10002DE9F0432DED028B99460B7F89B0072B10
:100C200004460F461546129E1AD140F20241836BCC
:100C3000984740B9AC4B0093272365692046AB4ADF
:100C4000AB49A84799E0B06240F202412046A36B4D
:100C5000984720B9A74B009365692B23EEE7F06214
:100C60002A7F3B7F072A08D1092B3DD0072B13D0C1
:100C7000A14B009365693123E0E79A4234D0CDE976
:100C800002329E4B01939E4B0093342365692046AC
:100C9000964A9C49A84770E0D5F80C80B8F1000F3F
:100CA00009D00023CDE90283974B0193974B009322
:100CB00065693923EBE74146DFED950A47F6FF709A
:100CC0009FED940AB36A944A10F072FBF36A4146AE
:100CD000DFED8F0A9FED910A914A924810F068FB70
:100CE000EB68F361AB68336297F81C80B8F1090FC9
:100CF00045D0B8F1070F40F03781FB684BB10022B7
:100D0000CDE90232804B0193874B009365695B23E9
:100D1000BDE7EA6842B1CDE902237B4B01937B4BEF
:100D2000009365695C23B2E7DFED807A95ED027A86
:100D3000B4EEE77AF1EE10FADFED7D6ACCBF77EE24
:100D4000677A77EEC77AF4EEE67AF1EE10FA7EDD96
:100D50004FF07C53002217EE100ACDE9042317F060
:100D600025F8744BCDE902010193734B00935D2389
:100D7000656920465D4A7149A847012086E0287FC1
:100D8000072832D1EB6813F5004F09D0654ACDE949
:100D900002326B4B01935D4B00936569622376E7EA
:100DA000DFED687A95ED027AB4EEE77AF1EE10FAAB
:100DB000DFED656ACCBF77EE677A77EEC77AF4EE3F
:100DC000E67AF1EE10FA66DD0022604B17EE100AAB
:100DD000CDE9042316F0EAFF5D4BCDE90201019352
:100DE000554B009365696323C3E7092812D06669F0
:100DF0000FF096FA054640460FF092FA554BCDE9B2
:100E0000025001933D4B009366232046374A5249D6
:100E1000B047B2E7EB6813F1800F0AD06FF07F02A2
:100E2000CDE902324D4B0193384B0093656967233E
:100E30002DE795ED027ADFED4A7AB4EE677AF1EEAE
:100E400010FA28D0474B009365696823F6E6B86826
:100E500016F0ACFF0446D9F800000D4616F0A6FFC8
:100E600002460B462046294616F0F8FF1CA3D3E99C
:100E7000002317F01DF906F1080841EC100B40465D
:100E800007A90FF08DFC079BF360002009B0BDECB3
:100E9000028BBDE8F083B86816F088FF41EC180BB0
:100EA000D9F8000016F082FF06F1080441EC100B9F
:100EB000B0EE481AF0EE681A2146052007AAFFF79F
:100EC0006BFE07991F22F16005201CF090FB16F0C5
:100ED0005BFF01F1004117F05BFAB061D5E700BF9D
:100EE000140014001400243F562F0A08D52E0A08B7
:100EF000492002086D2F0A08DB1F0A08412E0A0844
:100F00004E2E0A085A210208351F0A08902F0A0897
:100F100080000038A00020397BD90108800080378C
:100F20006DD901080080FFFFAA2F0A0800000038D1
:100F30006F120333E32F0A08EF2F0A08C32F0A08A2
:100F400004300A08000080376F1283320000F03E40
:100F50000B300A0817300A08272E0A0823300A081F
:100F60000000803B28300A08B8F1010F0FD040463E
:100F700066690FF0D5F9054601200FF0D1F9104B45
:100F8000CDE9025001930F4B009385233DE7287F65
:100F900001280ED066690FF0C3F9054640460FF0F0
:100FA000BFF9074BCDE902500193074B009386230D
:100FB0002BE7D9F8000016F0F9FEC6E9000164E756
:100FC0004A300A084E2E0A08412E0A080000000086
:100FD00038B555EC104B2DED028B00F091FB2246FD
:100FE0002B4620462946B0EE408AF0EE608A19F082
:100FF000C7FD98B9002200232046294617F0BEF904
:1010000060B9002200232046294617F08FF960B10D
:1010100019F0B0FD22239FED0C8B0360B0EE480A5F
:10102000F0EE680ABDEC028B38BD19F0A3FD212259
:1010300003460748BDEC028B1A60BDE8384000F05B
:1010400053BA00BFAFF30080000000000000F0FFC3
:1010500070D70A0800000000BD4B2DE9F04F5BEC93
:1010600010AB9B4585B05C4613DC2BF00045B94BBB
:101070009D426CD90022B84B5046594617F056F99C
:10108000002800F0F680012005B0BDE8F04F18F010
:10109000C3BAB24B9B4500F3E180B14B9B4540F393
:1010A000BA81251556469FED947BA5F2FF358DED4F
:1010B000027BC4F31304AB4B9C4200F3A18144F0C8
:1010C0007F57304647F4401739460022A64B16F0AA
:1010D0000DFD06460F460022A44BB24616F0BEFE9A
:1010E00032463B46BB4616F0B9FE80468946CDE9FE
:1010F0000089002C42D1002200233046394617F0E7
:1011000015F9002800F0D880002D00F0A3812846B2
:1011100016F03AFE06460F4679A3D3E9002316F0EF
:101120009DFEDDE9022316F0E3FC04460D46304641
:10113000394675A3D3E9002316F090FE02460B460C
:101140002046294616F0D4FC41EC100B8EE0A3F1AA
:10115000E8739D4240F29480854B1C449C4240F2CF
:101160005A810022814B50465946002516F076FEE2
:1011700052465B4616F072FECDE9000100224FF0A8
:1011800080435046594616F0B3FC02460B46504683
:10119000594616F08DFF02460B468046894616F0EA
:1011A0005DFE06460F465AA3D3E9002316F056FE0D
:1011B00059A3D3E9002316F09BFC32463B4616F0B8
:1011C0004DFE57A3D3E9002316F092FC32463B466E
:1011D00016F044FE54A3D3E9002316F089FC3246EE
:1011E0003B4616F03BFE52A3D3E9002316F080FCE9
:1011F00032463B4616F032FE4FA3D3E9002316F0E9
:1012000077FC32463B4616F029FE4DA3D3E9002376
:1012100016F06EFC32463B4616F020FE06460F46A0
:10122000002D40F0AB80DDE9004522462B4616F04C
:101230005FFC42464B4616F011FE02460B46204626
:10124000294616F053FC02460B465046594616F006
:101250004DFC41EC100B05B0BDE8F08F52465B46EB
:101260005046214616F044FC41EC100B05B0BDE899
:10127000F08F4BEC10AB05B0BDE8F04F18F0E8B9BB
:1012800000223C4B5046594616F032FC0022002307
:1012900017F074F828B1384B9D4202D84BEC10ABD4
:1012A000E4E752465B465046594616F0D7FD002209
:1012B0002E4B16F0D3FDC6E723A3D3E90023304617
:1012C000394616F0CBFD02460B460020264916F0A3
:1012D0000DFC42464B4616F0C1FD80468946002D66
:1012E00040F0BB8002460B463046394616F0FEFB06
:1012F00041EC100BBAE700BF000000000000000046
:10130000763C7935EF39EA3D0000E0FE422EE63FBB
:1013100044523EDF12F1C23F9FC678D0099AC33FC4
:10132000DE03CB966446C73FAF788E1DC571CC3FB8
:10133000599322942449D23F04FA97999999D93F15
:10134000935555555555E53F555555555555E53F1B
:101350007982DA3FFFFFEF3F0000F0BFFFFFEF7F32
:10136000FFFF3F439DA006000000F03F0000E03F6C
:101370003C412D4000005043FFFF8F3C284616F0B3
:1013800003FD04460D4652A3D3E9002316F066FD83
:1013900002460B463046394616461F46DDE9002315
:1013A00016F0A6FB42464B4616F058FD02460B4689
:1013B0002046294614461D4647A3D3E9002316F0CC
:1013C0004DFDDDE9022316F093FB02460B46204655
:1013D000294616F08DFB02460B46DDE9000116F0AA
:1013E00085FB52465B4616F081FB02460B463046B3
:1013F000394616F07BFB41EC100B05B0BDE8F08FD1
:1014000044F07F57C4F580140135304647F4001787
:10141000A410394659E60022314B5046594616F081
:1014200067FB06460D150F460C46A5F2FF35002D4D
:101430003DDD52465B4616F059FB02460B46002046
:10144000274916F053FB32463B4616F031FECDE9F4
:1014500002012EE69FED1C0B08E7284616F094FCCF
:1014600082468B461AA3D3E9002316F0F7FC044604
:101470000D465046594618A3D3E9002316F0EEFC5A
:10148000DDE9022316F034FB02460B46404649468E
:1014900016F02CFB32463B4616F028FB02460B4664
:1014A0002046294616F022FB41EC100BDEE6002216
:1014B0000B4B16F01BFB02460B465046594616F0E6
:1014C00015FBC0E7AFF30080000000000000000043
:1014D0000000E0FE422EE63F763C7935EF39EA3DEA
:1014E0000000F03F000000009FED010B704700BFBF
:1014F000000000000000F87F51EC100BC1F30A530C
:101500002DE9F041A3F2FF350C460646132D34DCDD
:10151000002D20DB364B0F4643FA05F801EA08039D
:1015200003432FD030A3D3E9002316F0E1FA0022C1
:10153000002316F023FF40B1002C03DD4FF480138D
:101540002B411F4427EA080400262346324643EC79
:10155000102BBDE8F08124A3D3E9002316F0C8FACC
:101560000022002316F00AFF0028EED0002C36DB04
:101570003443E9D000261F4CE7E7332D06DDB5F5EF
:10158000806F25D041EC100BBDE8F081A3F213432E
:101590004FF0FF37DF403842F4D013A3D3E90023E4
:1015A00016F0A6FA0022002316F0E8FE0028CCD0A0
:1015B000002C334609DD142D06D0C5F13405012277
:1015C000AA4013449E4200D9013423EA0706BCE72F
:1015D00002460B4616F08CFA41EC100BD4E70026BD
:1015E0004FF00044B1E700BF9C7500883CE4377EB3
:1015F000FFFF0F000000F03F51EC100BC1F30A5346
:101600002DE9F041A3F2FF350C460646132D32DCDE
:10161000002D20DB384B0F4643FA05F801EA08039A
:1016200003432DD032A3D3E9002316F061FA002240
:10163000002316F0A3FE40B1002C03DA4FF4801310
:101640002B411F4427EA080400262346324643EC78
:10165000102BBDE8F08126A3D3E9002316F048FA49
:101660000022002316F08AFE0028EED0002C2ADB90
:1016700000263446E9E7332D06DDB5F5806F1BD033
:1016800041EC100BBDE8F081A3F213434FF0FF379C
:10169000DF400742F4D016A3D3E9002316F028FA5E
:1016A0000022002316F06AFE0028CED0002C33461C
:1016B00010DB23EA0706C8E702460B4616F018FAC5
:1016C00041EC100BDEE724F0004426430DD14FF02F
:1016D0000044BAE7142D06D0C5F134050122AA4012
:1016E0001344B342E5D20134E3E70026034CACE7F0
:1016F0009C7500883CE4377EFFFF0F000000F0BFC0
:1017000053EC102BB3F5801F2DE9F04F1C4687B02A
:1017100058DA23F000411046114300F0F780002B07
:101720001946C0F234810022D94B16F097FB0C46C3
:101730000B46D84902466FF035008C4246DC251531
:10174000D549C4F31304A5F2FF3521440544D34819
:1017500001F48011484005EB115540EA040310469E
:1017600000221946CD4B16F0C1F9A31C82468B46C8
:10177000C3F31303022B32DC0022002316F0D6FD44
:10178000002800F0CE80002D00F09281284616F04F
:10179000FBFA06460F46AAA3D3E9002316F05EFB28
:1017A00004460D4630463946A7A3D3E9002316F078
:1017B00055FB02460B462046294616F099F941ECA6
:1017C000100B09E0B34900208C42B8DD10461946E1
:1017D00016F08EF941EC100B07B0BDE8F08F002237
:1017E0004FF0804316F084F902460B4650465946A6
:1017F000DFF8B88216F05CFC06460F46284616F065
:10180000C3FA32463B46A044CDE90401304639468E
:10181000CDE9026716F022FB02460B46CDE9002314
:1018200016F01CFB06460F4689A3D3E9002316F0E9
:1018300015FB89A3D3E9002316F05AF932463B463B
:1018400016F00CFB86A3D3E9002316F051F93246BB
:101850003B4616F003FB84A3D3E9002316F048F9B6
:10186000DDE9002316F0FAFA81A3D3E90023CDE9DC
:1018700000013046394616F0F1FA7FA3D3E9002380
:1018800016F036F932463B4616F0E8FA7CA3D3E967
:10189000002316F02DF932463B4616F0DFFA0B46D0
:1018A0000246DDE9000116F023F97D4B06460F469E
:1018B0001B1B43EA0803002B5BDD0022794B5046DB
:1018C000594616F0CBFA52465B4616F0C7FA8046E8
:1018D0008946002D64D142464B463046394616F0C3
:1018E00007F9DDE9022316F0B9FA02460B46404635
:1018F000494616F0FBF802460B465046594616F08C
:10190000F5F841EC100B07B0BDE8F08F0022002382
:101910000020654916F0CCFB41EC100B07B0BDE888
:10192000F08F59A3D3E900235046594616F096FA92
:1019300002460B4600205B4916F0D8F806460F46D3
:1019400052465B465046594616F088FA02460B4608
:101950003046394616F082FA06460F46002D56D11B
:1019600002460B465046594616F0C0F841EC100BA3
:1019700032E7002D40F09F8002460B465046594604
:1019800016F0B4F8DDE9022316F068FAB3E716F0B2
:10199000ADF80022002316F08BFB41EC100B1BE787
:1019A00027A3D3E90023DDE9040116F057FA4246E4
:1019B0004B4604460D463046394616F099F8DDE9A7
:1019C000022316F04BFA06460F461FA3D3E9002365
:1019D000DDE9040116F042FA02460B46304639466C
:1019E00016F086F802460B464046494616F07EF849
:1019F00052465B4616F07AF802460B4620462946C8
:101A000016F074F841EC100B07B0BDE8F08F2846D3
:101A100016F0BAF98046894609A3D3E9002316F0E7
:101A20001DFA04460D464046494607A3D3E9002364
:101A300016F014FA02460B4630463946D6E700BF88
:101A40000000E0FE422EE63F763C7935EF39EA3D74
:101A500044523EDF12F1C23FDE03CB966446C73FDD
:101A6000599322942449D23F935555555555E53FF6
:101A70009FC678D0099AC33FAF788E1DC571CC3F01
:101A800004FA97999999D93F555555555555D53FCC
:101A900000005043FFFFEF7F645F09000000F03F4C
:101AA00051B806000000E03F000050C386EBF9FF8C
:101AB0009FED0D0B90E6DDE904890DA3D3E900232A
:101AC0004046494616F0CAF932463B4604460D46A2
:101AD0005046594616F00AF8DDE9022316F0BEF921
:101AE00006460F469FE700BF000000000000000010
:101AF0000000E0FE422EE63F0348044B834202D042
:101B0000034B03B11847704788A8032088A8032017
:101B100000000000064B0749C91A891048BF01316F
:101B2000491003D0044B0BB101481847704700BF60
:101B300088A8032088A803200000000010B5064CE8
:101B4000237843B9FFF7D8FF044B13B10448AFF330
:101B500000800123237010BDA0820320000000003C
:101B60005CDB0A0808B5054B1BB105490548AFF316
:101B70000080BDE80840FFF7CDBF00BF00000000B7
:101B8000401103205CDB0A08A3F5803A704700BFD0
:101B9000174B002B08BF134B9D46FFF7F5FF0021A5
:101BA0008B460F461348144A121A1DF05EF80E4B6E
:101BB000002B00D098470D4B002B00D098470020F9
:101BC000002104000D000D48002802D00C48AFF39E
:101BD000008017F02BF9200029001BF0B9F916F04E
:101BE00081FF00BF000008000000000000000000AE
:101BF0000004002000040020FCA6032000000000D8
:101C0000000000002DE9F04F2DED068B09EE103A93
:101C1000036889B003F1010A4FEA4A0B0B60804662
:101C200058460C46914616F06FFF0290E060584609
:101C300016F06AFF20610646584616F065FF60619F
:101C400007464FEACA0016F05FFF20624FEA8A009B
:101C500016F05AFF0546584616F056FF00905846B3
:101C600016F052FF029B01902BB126B11FB115B1A6
:101C7000009B03B1A0B9284616F04EFF009816F05D
:101C80004BFF019816F048FFC84BC9481B68D9683C
:101C900017F00EF8002009B0BDEC068BBDE8F08F00
:101CA000D8ED028AF5EEC08AF1EE10FAD8ED019A6D
:101CB00005DA2721BF4BC04AC04816F0EDFEF4EE0E
:101CC000E98AF1EE10FA03D42821BD4BBA4AF3E7B2
:101CD000B0EE680AFEF7BCFAB0EE408AB0EE690AD0
:101CE000FEF7B6FA07EE90AA30EE480AB8EEE77AA9
:101CF0002A46C0EE077A002303959A4550DC4846F1
:101D000016F042F80022AF4B16F0A8F8B7EE007AB2
:101D1000F8EEC97A77EEC77A804617EE900A8946C0
:101D200016F044F802460B464046494616F0C0F904
:101D300016F076FB08EE100AC8EE887A17EE900AC5
:101D400016F034F8A04B002215F0D2FE16F020FB5E
:101D5000002381466060984618469B46A360049520
:101D6000D04560DB0221584616F0B4FE02210490F3
:101D7000A061584616F0AEFE049B0590E0610BB1E1
:101D8000002877D1284616F0C7FE009816F0C4FE4A
:101D9000019816F0C1FE854B8C481B68D96877E71F
:101DA000013307EE103AF8EEC76AB0EE487A06EE55
:101DB000A77AA2EC017AA0E7013207EE902AB8EEEA
:101DC000E70A20EE080A06900592FEF741FADDE9DF
:101DD0000520049BD3ED007AB4EEE70AF1EE10FA89
:101DE000EAD90099A2EB090321F81890019921F88A
:101DF00018300BBB029926F8183021F818304FF034
:101E0000040327F8183038B9304606EB480E704501
:101E10000BD101200BF1040B049B9146043308F114
:101E2000010804939CE74A46C7E7B0F900C00CF1EB
:101E3000040C20F802CBEAE7B9F1000F09F0010E1B
:101E4000B8BFCEF1000E9E44BEF1010C48BF0EF1AA
:101E5000020C029B2CF0030C09EBD9790CF1040C59
:101E600029F0010926F818B023F8189027F818C0AF
:101E7000E344D1E7B0EE680AFEF7EAF94FF0000854
:101E8000F0EE409AD04513DB284616F045FE009848
:101E900016F042FE019816F03FFE19EE102AA368D4
:101EA000934240F39D80414B49481B68D968EFE657
:101EB000009B33F91890019B33F918300793029B6C
:101EC00033F9187036F91830A9EB0707B8F1000F8D
:101ED00023D0039A12ED01AA4FF0000B1F44049B7C
:101EE00003EB47030693059B03EB47070BEB090343
:101EF00000EE103A079B9B4512DB002BACBF09EBB1
:101F0000030209F10002A36808F101089A42039B49
:101F1000C8BFA26004330393B4E7B0EE69AADBE75D
:101F2000B8EEC00A039B20EE080AD3ED008AFEF744
:101F30008FF938EEC00A78EECA8ADFED267AC0EE55
:101F400028AA6AEEA77A17EE900A15F02FFF002252
:101F50001C4B15F0CDFD41EC100BFFF74DFB51EC88
:101F6000100B16F015FA069B0BF1010B23F8020B70
:101F70001AEE900A069315F019FF02460B46002050
:101F8000154915F0B3FD0022144B15F067FF002230
:101F90000C4B15F0ADFD41EC100BFFF72DFB51EC98
:101FA000100B16F0F5F927F8020B9FE718A803208D
:101FB000381A02085C1A02086E1B02087A1A020814
:101FC000E91A02080000E03F0000F83F171B020872
:101FD000401B0208000080450000F03F0000B040B8
:101FE000012058E6836973B505460C46164653B979
:101FF000C36A43B13A4B3B481B68D96816F058FE98
:10200000002002B070BDB422002120461CF02DFE3D
:10201000324621462846FEF73FF920B9304B324878
:102020001B68D968EAE7204650F81C1B00F0C4F989
:1020300020B12B4B2D481B68D968DFE7A36A3246D5
:102040005B08013304F12C0105F10800FFF7DAFD0C
:1020500020B9234B26481B68D968CFE7E26A04F110
:10206000500105F1180000F0A7F820B91C4B2148D9
:102070001B68D968C2E704F18402A96805F144002D
:10208000FEF7A2F804F1A80105F1580018F02EFEA1
:10209000A36A04F16801B3FA83F3C3F1190301934E
:1020A000B4F8543005F12C000093E36A626E00F03E
:1020B000FBF820B90A4B10481B68D9689EE704F169
:1020C0007C0105F13C0018F062FF20B9044B0B487D
:1020D0001B68D96892E7204618F03FFF012090E77F
:1020E00018A80320891B0208BE1B0208DF1B020878
:1020F000F91B02081E1C0208481C0208741C020876
:102100002DE9F74F0646002408464BF2721E4FF4A5
:1021100000484FF6FF7A01927268DFF898C000928B
:10212000C3F10009019A944202DB03B0BDE8F08FCD
:10213000326850F8241092B3002BB4BF21FA09F191
:102140009940012933D9B1FA81F50122C5F11F0760
:102150000F2F02FA07F2A1EB0202D5BF0F3DC5F126
:102160000F05AA402A415512691C3CF815B03CF8ED
:102170001110A2EB4525A1EB0B0169435A4402EB78
:1021800021420025414602EB0742E2FB0E15009A70
:10219000090C41EA0541914001F50041090C514506
:1021A0000A4628BF524620F814200134BAE700211D
:1021B000F5E700BF981C020838B5034610461A68B8
:1021C0000C460A600AB9012038BDD3ED037A9FEDB1
:1021D000167A67EE877AFCEEE77A5A684A6017EE5D
:1021E000902AD3ED027A67EE877AFCEEE77A4A818D
:1021F00017EE902AD3ED047A67EE877AFCEEE77A41
:1022000017EE903A0A818B810861042116F062FC76
:10221000054660610028D6D1044B05481B68D96883
:1022200016F046FD2846CFE70000804618A8032098
:102230009C1D020807EE102A012208B5C368B8EEFB
:10224000477A02FA03F38A4007EE902A00EE103A2A
:10225000F8EE677AD0ED010A2DED028BB8EE408AD8
:1022600087EE270AD0ED027AF1EE600A30EE270AF7
:1022700017F0D8F8DFED0B7A28EE000ABDEC028BE0
:10228000B4EEE70AF1EE10FADFBFF6EE007A30EEB8
:10229000270ABDEEC00A10EE103ACCBF47F6FF7019
:1022A00018B208BD00FEFF462DE9F84F0E46016842
:1022B00005460B9F3160002956D0FA20C6E901235C
:1022C00016F022FC0446F06040B9284B28481B68F1
:1022D000D96816F0EDFC2046BDE8F88FEB680022C7
:1022E000DB1B0C3B3361BDF828602846F61B3146EA
:1022F000FFF7A0FF02272080012231462846FFF782
:1023000099FF4FF0010B3B46608007F1FF39202F0A
:102310000BFA09F23146284614BF03FA09F94FF0C7
:10232000FF3902EB520AFFF785FF524680463146DD
:102330002846FFF77FFF4A46824631462846FFF788
:1023400079FFAAEB080AA0EB0800C0EB8A0A013764
:10235000A0EB0A00212FA4F80480A4F806A04FF0F7
:10236000020324F8080FD0D10120B5E718A80320F4
:10237000BD1D0208F8B5D0E90276044600230568C1
:10238000BB4210D1F21A5200B34288BF0022002192
:1023900005EB43001CF069FC294662680548BDE86E
:1023A000F8400FF0B3BF31F81300904025F8130048
:1023B0000133E5E7601103202DE9F04F41F6F0739A
:1023C0002DED028BA1F110029A42054689B000F270
:1023D000FC80202915D909232024013B4FEA44041D
:1023E00001D0A142F9D866003046C5E9021416F0C2
:1023F0008BFB286038B9192009B0BDEC028BBDE811
:10240000F08F2024EFE7A00016F07EFB6860002824
:10241000F1D0304616F078FB6D4B07461860002867
:10242000E9D0304616F070FB6A4B0646186000286B
:10243000E1D007EE904A9FED687AF8EEE77A002344
:10244000C7EE278A650807F1020A00F1020B019323
:10245000DDED017AB8EEE78A28EE288AB0EE480A68
:1024600017F082F810EE100A15F0A0FC02460B4699
:10247000CDE902010020594915F038FB0022584BE4
:1024800015F0ECFC0022574B15F0E8FC15F0C8FFE6
:1024900007EE900AF8FE677AFDEEE77A17EE903ABB
:1024A000B0EE480A2AF8023C17F01AF810EE100AAB
:1024B00015F07CFC01F10043059304900022DDE956
:1024C0000401474B15F0CAFC0022464B15F0C6FC30
:1024D0008946804615F0A4FF07EE900ADDE9020167
:1024E000F8FE677AFDEEE77A17EE903A00222AF8B6
:1024F000043B3A4B15F0FCFA0022394B15F0AEFCC8
:102500000022384B15F0AAFC15F08AFF07EE900A5E
:10251000F8FE677AFDEEE77A17EE903A2BF8023C68
:1025200009F100430793CDF81880DDE9060115F0A5
:1025300077FF07EE900AF8FE677AFDEEE77A17EE6E
:10254000903A2BF8043B019B01339D4201933FF7E6
:102550007FAF4FF48073244AB5F5807F93804FF0AE
:102560000103C2E903761460936024D012D8402D91
:1025700023D007D81D4B1E49102D08BF0B46002045
:10258000536139E7802D1AD0D3211A4B1A4A1B48C0
:1025900016F082FAB5F5006F13D007D8B5F5007FB5
:1025A00011D0B5F5806FEFD1154BE8E7B5F5805F39
:1025B000EAD1144BE3E7144BE1E7144BDFE7144B8C
:1025C000DDE7144BDBE7144BD9E7232014E700BF0A
:1025D0005C11032058110320DB0FC9400000F03FBD
:1025E0000000E03F0000E04060110320F8380A08D6
:1025F00008390A08451E0208581E02088F1E0208E4
:10260000A8380A0888380A08C8380A08E8380A08C2
:10261000D8380A0898380A08B8380A0800B54FF4BC
:10262000395299B000211A481CF01FFB0023194AA7
:102630000A211360184A05931360184A0B9313601C
:102640001E22CDE900212822154B0292154A0C9337
:102650000492154B154A0D93039215230122CDE9DF
:102660000E320623CDE9062111494FF47A52089122
:10267000104968460991104910930A910F49FFF7D4
:10268000B1FCB0FA80F0400919B05DF804FB00BF5E
:10269000582C032038120320341203203012032058
:1026A0003333733F0000FA420000A0420060EA4565
:1026B000CDCCCC3C8FC2753DCDCCCC3E7811032027
:1026C000B1F5007F30B515D100230B4A0B4D1168D1
:1026D00030F81340194401336400B3F5007F25F846
:1026E0001140F4D10020136803F50073C3F30B030A
:1026F000136030BD2120FCE734120320985A0320D8
:102700002DE9F0430024274E87B0274D274B2A6838
:102710001B689A4209D1002C41D00020244A13683A
:102720002344136007B0BDE8F0834FF400782B68B2
:10273000204FDFF8889007EB430703AB3A4600933E
:102740004946434604A818F0B4FBDDE9033C07EB17
:102750004307A8EB0308BCF1000F0ED00023059837
:10276000154A984213D11368013418444FF4B953F1
:10277000B0FBF3F103FB11001060B8F1000FDCD1E6
:102780002B6803F50073C3F30B032B60BDE71168DF
:102790003CF813E0194426F811E00133E1E71B206F
:1027A000C0E700BF582C0320381203203412032046
:1027B0002C120320985A0320301203207811032092
:1027C000B1F5B95FF0B53BD1002A39D000252C46D0
:1027D0001C4F1D4E3B682344B3FBF1FC01FB1C3333
:1027E00036F8133001349D42B8BF1D46B4F5B95FC9
:1027F000F0D1AA1A22EAE272A91A0129B8BF01216E
:1028000000256FF07F0C3B682B44B3FBF4FE04FB08
:102810001E3336F813309B1AC3EB032393FBF1F3FB
:10282000803B6345B8BF63467F2BA8BF7F234355DA
:102830000135B5F5B95FE6D10020044B1860F0BD55
:102840002120FCE730120320582C03202C120320F7
:1028500010B501214FF47A5002F05CFE044648B9ED
:102860004FF40071064A074802F058FF044618B1B9
:1028700002F0BCFF204610BDFFF7D0FEFAE700BF14
:10288000C1B10108987A032008B5024802F050F857
:10289000FEE700BFEF1E0208884208B502D1B0F182
:1028A000004F1FD080FB0101002911DB10F1804097
:1028B00041F10001C00F40EA4100002AC2F10001CD
:1028C00013DD4FF4B371134B134A144816F0E4F8B8
:1028D000134BC01861F100010029EBDA6FF00043DF
:1028E000C018E5E76FF00040E7E71F3204DA40F276
:1028F00067110C4B084AE8E701238B40013B03EAD0
:1029000000025B1003EBD07308419A42C8BF01304C
:1029100008BD00BFF71E0208051F02085F1F02085E
:10292000010000C0D71F02082DE9F0472DED068BEE
:1029300081468AB08846DDE91874194610461E465D
:1029400015461AF04BFE3B7F80F00100092B2070EA
:1029500040F08A8097ED027AF7EE006AC6EE877A39
:10296000EB680DF10C0A5B426362F36829465B4237
:102970002363FB685046E363AB68A362B368C4EDAE
:10298000107A63631AF074FE504618F030FC6064ED
:10299000CDF800A03A46484698F8001002AB0DF07A
:1029A0002DFD00285BD1029B84F84830039B84F8FE
:1029B000493096ED028A95ED02AAB4EECA8AF1EE8C
:1029C00010FA4FF0140378FE0A7A17EE900AE361CA
:1029D00015F0ECF902460B4615F08AF88046894658
:1029E00018EE100A15F0E2F942464B4615F060FB6E
:1029F00041EC190BB86815F0D9F90022284B15F0F5
:102A00002DFA02460B464046494615F051FB41EC73
:102A1000180B1AEE100A15F0C9F942464B4615F08C
:102A200047FB261D04F10C0541EC100B31462846EE
:102A30000DF020FFB0EE490AF0EE690A04F108013A
:102A400004F110000DF016FFB0EE480AF0EE680A2F
:102A500004F1180104F114000DF00CFF00200AB07D
:102A6000BDEC068BBDE8F087012BF7D198F800305C
:102A7000012B03D10023E3640A4B04E0032B04D1B0
:102A80000023E364084B2365E8E7022B04D1074BDE
:102A9000E3644FF07E53F6E76FF40003EBE700BF0B
:102AA00000003041FFFF7F7F0000C040000080BF7A
:102AB000CB682DE9F74305460E460BB9FFF7E4FE58
:102AC0000B69002BFAD0C4680022236820469B695A
:102AD0009847814660B9214B0093B7236C6928461B
:102AE0001F4A2049A0470125284603B0BDE8F083CE
:102AF00023680122314620469B699847804620B9C9
:102B0000194B00936C69BA23E9E723680022314628
:102B10002046DB699847074620B9144B00936C693F
:102B2000BD23DCE7F3684A46CDE900032846434667
:102B30003169FFF7F9FE05460028D5D123684946DB
:102B400020465B6A98472368414620465B6A98475F
:102B50002368394620465B6A9847C5E7602002082B
:102B6000E61F020849200208722002088420020899
:102B7000002313B50446CDE90033044A044B05494C
:102B80001AF096FE204602B010BD00BFB12A000820
:102B9000992B0008C5B101082DE9FF47D1E903A928
:102BA00004460D46BAF1000F01D1FFF76DFE002279
:102BB0001AF0A0FE01222946074620461AF09AFE86
:102BC00000228046294620461AF096FE0646007AE4
:102BD00001280CD1204653464A462946CDE90186B4
:102BE000009718F069FD002004B0BDE8F0870928BF
:102BF00009D153464A4629462046CDE90186009729
:102C000018F0D2FDF0E765690DF08AFB337A0246D1
:102C100002492046A8470120E6E700BF96200208A7
:102C20002DE9FF471446DDE90E7E1A46DDE90C6307
:102C3000D1ED025A616892ED025A0C689FED1E7A3E
:102C40000021DFED1E6ADDF840C004340DF10C08F0
:102C50000DF104090DF1080A614506DB0C97317886
:102C600004B0BDE8F0470DF0C9BBB4EC016A25EE35
:102C7000866AC6EE057A67EE807AF4EEC77AF1EEE0
:102C800010FACDED017A4CBF45464D468DED037AE5
:102C9000D5ED007AF4EE667AF1EE10FACDED026A27
:102CA000C8BF5546D5ED007AF3EE677A17EE905A15
:102CB0002EF811500131CFE700E07FC700E07F47D9
:102CC0002DE9F04FCC6805460E46AFB00CB9FFF7C2
:102CD000DBFDD1F81080B8F1000FF8D0C7680022F2
:102CE0003B683846DB6998473B68022231469B695E
:102CF0008346384698473B68002231469B698246A6
:102D0000384698473B6881460122314638469B69E0
:102D100098470C90B9F1000F09D16F4B00937623BF
:102D20006C6928466D4A6E49A0470120BBE0BBF1A3
:102D3000000F04D16B4B00936C697723F1E70C9B78
:102D400023B9694B00936C697823EAE7D9F814300A
:102D50005A6822611A6962619A68DB680D920E9363
:102D600023620C9BE2615B695A689E680B92DB6888
:102D70006262DBF814200F939168D268A364D9F8DB
:102D80000C30E1625B42E366DBF80C3022632367C0
:102D9000D8F80830666410932365D8F8043011938E
:102DA0006365D8F8143063661293D8F81030139323
:102DB000A36698F800305A1E14935342534184F886
:102DC0005830139BDDE90E1200931498119B18F0F4
:102DD000A6FE129B32460D99159000931498109BF5
:102DE00018F09DFE129B013E5E43109B0138013698
:102DF00003FB00660D9B139AF61A0F9B1199013B7A
:102E00005343159A0133013A01FB02330E9A99F8A4
:102E10001C009B1A26EAE67623EAE37376105B1021
:102E20000928E665236640F0D68004F11006304696
:102E300019F0FAFB04F134030E9304F13803AA6B82
:102E400008F10C080D93002854D0002323700B9B2D
:102E5000284659000F9190470F99BAF1000F37D0CB
:102E600000239FED227AE0640B9A9A421EDCAB6B42
:102E700028469847E0630F90304619F0F4FB0B9B0F
:102E8000064604930F9B9FED1A0A03930D9B494638
:102E900002930E9B2846CDE900830C9A5B46FFF710
:102EA000BFFE002878D02FB0BDE8F08FDAF81020F0
:102EB00002EB8302D2ED007AF8EEE77A67EE877ACA
:102EC000F3EE677A17EE902A20F813200133CBE750
:102ED000C4F84CA0CBE700BF16210208B2200208BC
:102EE0004920020884200208272102080000003837
:102EF000000000470B9B28469E0031469047314614
:102F0000AB6BA067284698470B9BE067CDE90703AA
:102F1000A36F494606930D9B284605930E9B0C9A7A
:102F2000049317AB039316ABCDE90183CDF800B042
:102F300053460DF0E7FA0028B5D101232370E36E64
:102F40001CAA2493236F18A92593236D24A82793E3
:102F5000636D2693636E2B93A36E2A93E36D29937F
:102F6000236E2893636B2C93A36B2D932369189383
:102F7000E3691993236A1A9363691B93636C1D9326
:102F8000A36C1E93E36A2193236B2293636A2393BA
:102F900020AB0FF081FF0646002E2EDD314628467D
:102FA0002B6C04F10C02984700287FF47CAF3B683F
:102FB000494638465B6A98473B6838465B6A0C99D5
:102FC00098473B68594638465B6A9847BAF1000F04
:102FD00029D1002067E701281DD10223237098F82A
:102FE0000C30012B03D100236360124B04E0032B50
:102FF00007D100236360104BA3604FF0FF33E36001
:10300000D5E7022B04D10D4B63604FF07E53F3E7FD
:103010006FF40003E8E76C690DF082F90849024695
:103020002846A04781E63B68514638465B6A984788
:10303000CFE700BFFFFF7F7F0000C040000080BFE0
:103040003921020830B585B00C46054608990AB901
:10305000FFF71AFC1268A2610029F9D00A68A2627F
:10306000002BF5D0E1681B680029236402DB436C68
:103070009847606704F1100019F020FA70B100233E
:103080000293074B03900193064B284600936C690B
:103090004FF48A73044A0549A047012005B030BDAA
:1030A000742102087B210208B22002085A2102087A
:1030B0002DE9F04F2DED048B16461D46B1F9603019
:1030C000B7B00993B1F95C3091ED019A0A93B1F967
:1030D0005430D1ED029A0B93B1F950301AA80C93E9
:1030E000B1F96830459C0D93B1F9643011460E93E7
:1030F0001AF008FC0EB9FFF7C7FB3368294621A870
:1031000010931AF0FFFB002DF5D02B68449928A8E6
:103110000F931AF0F7FB449B0BB11B6844932146B5
:103120002FA81AF0EFFB002CE5D0236819931A9B07
:10313000042BE0D1219B042BDDD12F9B042BDAD172
:1031400000232FAA19461AA818F0DAFC03231290BC
:1031500000212FAA21A818F0D3FC449B1E9C0590A7
:1031600043B100220123289828A9824229DB059A2D
:103170009A42C0D11C9B13931D9B1493239B1593C0
:10318000249B1693259B039394FBF3F3002BB2D05F
:10319000039A02FB1344002CADD1059A92FBF3F382
:1031A0000893002BA7D0319B1793329B1893129B47
:1031B000A34240F39F800A9B5B4206930023049343
:1031C00014E051F8045F01326B43CEE74FF0000981
:1031D000099B5B420793189B4B4500F38980049B36
:1031E0000C9A01330493069B13440693179B049A8D
:1031F0009342EBDC0134DAE7089B4FF0000A95FBC1
:10320000F3F3DFED3F8A039A069E53431193159B18
:1032100053452CDC449B002B67D003EB850393EDD7
:10322000008A38EE288AB4EE489AF1EE10FA39FE98
:10323000088AF4EE489AF1EE10FA4B4600952146C2
:10324000049A2FA848BFB0EE698A18F027FC199B92
:10325000013503EB800080ED008A059BAB42CBDC9F
:10326000079B0B9A09F1010913440793B3E74FF049
:10327000000B079F169B5B4504DC0E9B0AF1010ABD
:103280001E44C4E756EA07032AD4149BBB4227DD39
:10329000139BB34224DD4FF000081EE0119B324621
:1032A0004344214600931AA83B4618F0F7FB109BB5
:1032B000524603EB800090ED008A5B46CDF800801B
:1032C000294621A818F0EAFB0F9B08F1010803EB3F
:1032D0008000D0ED007AE8EE278A039B4345DDDCD1
:1032E0000D9B0BF1010B1F44C4E79FED058A98E786
:1032F0000025B2E7002037B0BDEC048BBDE8F08FAD
:1033000000000000002313B50446CDE90033044A51
:10331000044B05491AF0CCFA204602B010BD00BF9C
:10332000C12C00081FBC01088BBA01082DE9F04F21
:103330002DED068B9B46B0F90A309DB00E93B0F987
:103340000C308A460F93B0F90E30D0ED0C8A1093F2
:10335000B0F9103090ED0D9A1193B0F902302D9C18
:103360001293B0F904302F9F1393B0F912301B92CF
:1033700008930B68042B01D0FFF786FADBF80030C6
:10338000042BF9D13B68042BF6D100233A461946A9
:10339000504618F0B5FB03233A4619461690584696
:1033A00018F0AEFBDAF808301493DAF80C30159305
:1033B000DAF810300C93DBF808300C9A1793DBF82E
:1033C0000C301893BB681993FB681A93089B5343FE
:1033D0008342D1D10022012321688A4206DB984230
:1033E000CAD14FF00009DFED5C9AA7E054F8045F02
:1033F00001326B43F1E708EB04030D9300239FEDCB
:10340000568A0B9E0693069B179A934237DA00233F
:103410000A9D079329E055EA060321D4159BAB4288
:103420001EDD149BB3421BDD059B324649460093CB
:1034300050462B4618F032FB1B9B002103EB80000B
:103440000D9B90ED00AA00935846DDE9062318F085
:1034500025FB2C9B03EB8000D0ED007AAAEE278A97
:10346000079B01330793109B1D44079B189A9342B7
:10347000D1DB069B01330693119B1E44C3E72E9BB1
:10348000002B37D0099BD3ED007A38EE278AB4EEB3
:10349000688AF1EE10FA48BFB0EE688AB4EE489A36
:1034A000F1EE10FA0D9B494600933846DDE90323FF
:1034B00048BFB0EE498A18F0F1FA309B08F10108D4
:1034C00003EB800080ED008A099B04330993089B7D
:1034D000984590DB059B01330593089B1C44059B95
:1034E0000C9A934209DA2E9B4FF0000803EB8403F9
:1034F0000993ECE7F0EE697AC7E7049B0E9A013373
:1035000004930A9B13440A93049B1A9A934202DA87
:1035100000240594E3E7039B0F9A013303930B9B6D
:1035200013440B93039B199A934205DA129B5B4257
:103530000A9300230493E7E709F10109169B9945D3
:1035400005DA139B5B420B9300230393EAE71DB05C
:10355000BDEC068BBDE8F08F000000002DE9FF47B1
:103560001446DDE90E7E1A46DDE90C63D1ED025A00
:10357000616892ED025A0C689FED1E7A0021DFED22
:103580001E6ADDF840C004340DF10C080DF1040989
:103590000DF1080A614506DB0C97317804B0BDE8EF
:1035A000F0470CF02BBFB4EC016A25EE866AC6EE3C
:1035B000057A67EE807AF4EEC77AF1EE10FACDED77
:1035C000017A4CBF45464D468DED037AD5ED007A24
:1035D000F4EE667AF1EE10FACDED026AC8BF5546F8
:1035E000D5ED007AF3EE677A17EE905A2EF8115067
:1035F0000131CFE700E07FC700E07F472DE9F04FC2
:10360000CC6805468A46B1B00CB9FFF73DF90F69A1
:10361000002FFAD0C668002233683046DB6998472D
:103620003368022251469B69814630469847336889
:10363000002251469B69834630469847336880464E
:103640000122514630469B6998470C90B8F1000F13
:1036500009D19E4B009376236C6928469C4A9D496C
:10366000A0470120AFE0B9F1000F04D19A4B0093BD
:103670006C697723F1E70C9B23B9984B00936C6935
:103680007823EAE7D8F814305A6822611A6962612F
:103690009A68DB680D920E9323620C9BE2615B6972
:1036A0001A690B926262D9F814209168D268E162BB
:1036B00022639A68DB680F921093A364D8F80C30E9
:1036C00062645B42E366D9F80C302367BB681193F0
:1036D00023657B6897F800A012936365BB690AF1C4
:1036E000FF32636613937B690E991493A36653426A
:1036F000534184F85830149B109A00935046129B03
:1037000018F00DFA139B0F9A0D99159000935046DF
:10371000119B18F004FA0F9B139A013B5343119A23
:103720000138013302FB00330D9A14999A1A109B49
:103730001298013B4B4315990133013900FB0133CA
:103740000E9998F81C005B1A22EAE27223EAE373EE
:1037500052105B100928E265236640F0A58004F151
:10376000100018F089FF04F13803AA6B103704F138
:10377000340A0D9300283ED0002323700B9B28466B
:1037800059000E9190470E99BBF1000F30D00023E5
:103790009FED537AE0640B9A9A4217DCAB6B284694
:1037A00098470B9BE063CDE903030D9B9FED4D0A0A
:1037B000CDE901A341464B4628460C9A0097FFF7F6
:1037C000CDFE00286CD031B0BDE8F08FDBF81020C2
:1037D00002EB8302D2ED007AF8EEE77A67EE877AA1
:1037E000F3EE677A17EE902A20F813200133D2E720
:1037F000C4F84CB0D2E70B9B284699000E91904735
:10380000AB6B0E996067284698470B9BA067CDE984
:103810000703636F414606930D9B2846CDE904A339
:1038200018AB039317ABCDE901730C9A5B46CDF847
:1038300000900CF067FE0028C5D101232370E36ED1
:1038400062692593236F25A82693236D2993636DC1
:103850002893636E2D93A36E2C93E36D2B93236EAD
:103860002A93636B2E93A36B2F93636A93FBF2F1FE
:10387000279121691991E1691A91216ACDE91B12F9
:10388000626C19A91E92A26C1F92E26A2292226BAC
:10389000CDE9232321AB1DAA0FF0C0FB011E39DCAB
:1038A0004FF0FF33E3603DE001282BD1022323706A
:1038B0003B7C012B03D1002363600B4B04E0032B03
:1038C00016D100236360094BA360E9E716210208C3
:1038D00088210208492002088420020827210208C2
:1038E0000000003800000047FFFF7F7F0000C0405D
:1038F000022B04D1184B63604FF07E53E4E76FF462
:103900000003D9E76C690CF00BFD14490246284608
:10391000A047A6E628462B6C04F10C029847002825
:103920007FF451AF3368414630465B6A984733684D
:1039300030465B6A0C9998473368494630465B6A63
:103940009847BBF1000F01D100203CE7336859468E
:1039500030465B6A9847F7E7000080BF39210208CC
:1039600030B585B0044608980AB9FEF78DFF126895
:103970008A610028F9D002688A62002BF5D01B68A2
:1039800001F110000B6403F005FC70B100230293F9
:10399000074B03900193074B20460093656940F263
:1039A0000D13054A0549A847012005B030BD00BFE9
:1039B000742102087B210208882102085A2102088A
:1039C000002313B50446CDE90033044A044B0549EE
:1039D00019F06EFF204602B010BD00BFFD35000893
:1039E00061BE0108B9BC01082DE9F04FCC6807465B
:1039F0000E4695B00CB9FEF747FF0B690393002BF9
:103A0000F9D0C56800222B6828469B6998472B6827
:103A1000012231469B698146284698472B6802223D
:103A200031469B698346284698472B68804600228A
:103A300031462846DB6998478246B9F1000F0BD121
:103A40006D4B00934D237C6938466C4A6C49A04706
:103A5000012015B0BDE8F08F20B96A4B00937C6956
:103A60004E23F1E799F81C6006F0F706012EEFD11E
:103A7000B8F1000F00F09F8041460CA819F0F8FD46
:103A800000220C990CAB8A42C0F2908099F81C304D
:103A9000092B72D1039B524619780AAB0093384622
:103AA00009AB0CF0ABFC0028D3D100220023CDE9F8
:103AB0000C230CABCDE900A35A4643464946384691
:103AC000FDF70EF80028C4D1D9F81030D9F8141039
:103AD000A36004A818F031FA04F10C0C04AB0FCB6E
:103AE0008CE80F00D9F80C305B42E361BBF1000FAA
:103AF00063D0DBF81030DBF81410236204A818F050
:103B00001CFA04F1240C04AB0FCB8CE80F00DBF89B
:103B10000C30DAF814105B4263630023C4E90E36FC
:103B2000DAF8103004A8236418F007FA04F1440C02
:103B300004AB0FCB8CE80F00DAF80C309DED0C0BCA
:103B40006365FCF755FC10EE103AA4F85830099B59
:103B500004F1080084F85A300A9B84F85B3018F0AE
:103B6000B0FD84F8600050BB20469DED0C0B0BA906
:103B70000CF016FE0B9B5B4263602B68494628469F
:103B80005B6A98472B68594628465B6A9847B8F1A4
:103B9000000F04D02B68414628465B6A98472B6883
:103BA000284651465B6A9847002052E753F8040FB5
:103BB0000132464367E7464668E75B469BE7B8F154
:103BC000000FDAD0D8F81030384603937100BB6B81
:103BD0009847074600283FF43BAF0146324603981A
:103BE00003F02AFD00287FF433AF94F86030A76318
:103BF000002BC2D1B8E700BF16210208F621020847
:103C000049200208842002082DE9F04F2DED028B97
:103C1000012AA1B01C46DDE92C762E9D15D0032A81
:103C200018D0F7EE007ADFED4C8A022A9FED4B8A1E
:103C300047FEA88AFFEE007A07FE888A214604A87C
:103C400019F060FE4CB9FEF71FFEDFED438A9FEDD1
:103C5000448AF3E7F1EE088AF9E7236839460BA8AE
:103C6000039319F04FFE002FEDD03B68314612A8A8
:103C7000029319F047FE002EE5D0294619A83768AF
:103C800019F040FE002DDED0199C2B68013C214626
:103C900019A8019318F03AF90B9D0090A91E0BA8E2
:103CA00017F099FA2146814619A817F094FA814530
:103CB0000446C8D1691E0BA817F08DFA00230246EE
:103CC0009C461846DFED266A009961453DDD0025DA
:103CD000019901EB8009039901EB8308294621E052
:103CE000BAEC016ABBEC017AE6EE077A0EF1010E3E
:103CF0007245F5DC0FB307EB810E9EED007A77EE8F
:103D0000877AF4EE487AF1EE10FA48BFF0EE487A7E
:103D1000F4EE687AF1EE10FA78FEA77AE9EC017A0F
:103D200001311544A1420BDA029EC2464FF0000E4B
:103D3000DFED0B7A06EB850BDAE7B0EE667ADEE7AD
:103D40000CF1010C20441344BEE7002021B0BDEC6F
:103D5000028BBDE8F08F00BFFFFF7F7FFFFF7FFF7B
:103D600000000000002313B50446CDE90033044AE7
:103D7000044B054919F09CFD204602B010BD00BF60
:103D8000E939000831400008FBBE01082DE9F04F79
:103D900092F86070E1B01446DDE96A981E466C9DA9
:103DA00008905FB11F7A092F08D1CDE96B85CDF856
:103DB000A89161B0BDE8F04F18F0DAB8B8F1000F83
:103DC00001D1FEF761FDD8F80070002F00F08B8064
:103DD00029462FA819F096FD2F9B022BF1D1309B7D
:103DE000494636A8DDF8C4B0099319F08BFD369921
:103DF00036A8013917F0EFF9314682463DA819F08F
:103E000081FDE269CDF874A02A92626D099B2C9223
:103E1000626B30462B9294F95A201A932D9294F9A2
:103E20005B201EAF2E922268169262680124CDE9B3
:103E30001EA44FF0000A5242CDE926341792CDE974
:103E4000204BCDE9244BCDE9284BCDE91B44CDE9EE
:103E50002244CDE918AA18F085F88346484618F0A0
:103E600081F8D8F80030002DABD02A682AA9069234
:103E700026AACDE9043222ABCDE90203CDE900B791
:103E80001AAB16AA18A80EF0BDFF50B3089B304617
:103E9000D3F814B018F066F80646484618F062F8F1
:103EA0002B6816AA069326AB0593D8F800302AA9EA
:103EB000049322ABCDE90203CDE900671AAB18A841
:103EC0000EF0A0FF564BCDE9020A0193554B08981E
:103ED0000093554AE4235549D847204661B0BDE8D0
:103EE000F08F0020FAE7E36931460B93636B44A837
:103EF0000C93636D0D9323680E9363685B420F937D
:103F000094F95A30089394F95B30099319F0FAFC4C
:103F1000304618F027F8494610904BA819F0F2FCEB
:103F2000484618F01FF84146119052A819F0EAFCD3
:103F3000294659A8D8F800B019F0E4FC002D3FF448
:103F400040AF4B9E2B68012E14937FF73AAF599CDC
:103F5000002C7FF736AFDDE9083293423FF731AFEF
:103F6000013C214659A817F0D1FF2146129059A8CB
:103F700017F031F9B11E05464BA817F02CF9854210
:103F80003FF71FAF711E4BA817F025F93C460646B8
:103F9000B946BA46129B5345A3DD4FF00008149B67
:103FA00047464B440A932BE01EF9012B0C991392C0
:103FB0001CF9012B01330A4415920B99139A0A44F8
:103FC0001146159A01FB02009E42EDDCBBF1000F89
:103FD00002D05BF827301844DDE90E120CF0A8FB84
:103FE0000D9B01371844089BB0449842B8BF18464F
:103FF000099B9842A8BF18460A9B03F8010B0A9335
:10400000BD4208DD109B03EB040E119B03EB080C73
:1040100000231846D8E70AF1010AA9443444B9E755
:10402000652202087A220208F62102085A210208B3
:104030002DE9F043D1F8109004460D4685B0B9F152
:10404000000F01D1FEF720FC002219F053FC0122E1
:1040500029460646204619F04DFC0222294607460D
:10406000204619F047FC002280462946204619F0D8
:1040700043FCEA680346002AE4D0307A01280BD0DA
:10408000092816D065690CF04BF9337A02460D49C0
:104090002046A847012009E099F800202946CDE9EB
:1040A0000183204633460097FFF7AEFD05B0BDE81B
:1040B000F083CDE901832946334620460097FFF778
:1040C00065FEF3E7962002082DE9F04F2DED068BF3
:1040D000CC6805460F46BDB00CB9FEF7D5FB0B69A1
:1040E000002BFAD0002219F005FC394606460022C2
:1040F000284619F001FC07466EB99B4B0093B52387
:104100006C692846994A9A49A04701203DB0BDEC08
:10411000068BBDE8F08F20B9964B00936C69B623EF
:10412000EFE7336894F84C8023610368E361B8F1EA
:10413000000F12D104F1080004F0D6F8002848D08E
:104140008D4BCDE9028001938C4B284600936C691E
:10415000BD23864A8A49A047D7E7B8F1010F3AD173
:104160006369226A1D93A36921921E93626AE368C0
:10417000CDF87080CDE91F38CDE92223A36BCDF8AF
:1041800090802993E36B2893636C2B93A36C2A9301
:10419000A36A2C93E36A2D93236B2593636BCDE97C
:1041A00026380023CDE91A33216D994203DB2846D6
:1041B0006B6C98471A90E3691CAA029320AB019399
:1041C00024AB0093236928A91AA80EF0A5FF0028A4
:1041D00083D100209AE7B8F1020F96D1A36B314644
:1041E0000693E36B2EA80793236BD4ED009A0A93F2
:1041F000636B94ED01AA0B93B4F944300893B4F9BE
:104200004830099319F07EFB3368394635A8179377
:1042100019F078FB3B6816932E9B042B7FF45DAF5F
:10422000359B042B7FF459AF002335AA19462EA8DD
:1042300017F066FC03230E90194635AA2EA817F036
:104240005FFC0021309B0F901093319B1193379BA3
:104250001293389B13930E9B8B42BADD089E002568
:10426000734205936BE00AEB0B0300942EA8CDE993
:10427000181217F013FCDDE91812179B78EE888AE4
:1042800003EB8000D0ED007A39EE279A0AF1010A9B
:104290000C9B5345E7DC09F10109149B4B4538DCC5
:1042A000F5EE408AF1EE10FA93D089EE288AF4EE0A
:1042B000489AF1EE10FA39FE888AB4EE48AAF1EE77
:1042C00010FA3B4600942A4635A848BFB0EE4A8A09
:1042D000189117F0E3FB169B189903EB800080ED13
:1042E000008A01340F9BA34219DC079B0137A8EB1E
:1042F00003089B44139BBB421ADD28EAE8730D9325
:10430000119B0B9A43449342A8BF134600240C937D
:10431000E8E7059BDDF834A009EB0302B8E7DFED21
:10432000198AB7EE008AB0EE689ADDF85490B4E7C7
:10433000069B0135F61ADDE9053213440593129BFD
:10434000AB420FDD26EAE6731593109B0A9A3344BD
:104350009342A8BF1346DDF8248000271493C8F1C8
:10436000000BC7E7013176E7162102089E230208F9
:104370004920020884200208742102087B210208D7
:104380005A210208000000002DE9F04FD1E9034551
:10439000C6689BB0336800229B69814630468846D8
:1043A00098473368074641460022DB693046984704
:1043B00080462B7839465A1E5342534184F8403088
:1043C000AB680CA8A3636B684FF0010BE3632B6928
:1043D0002363EB68636319F04BF9414613A819F0A6
:1043E00047F9002313AA19460CA817F089FB394690
:1043F000A0600CA819F03CF9414613A819F038F94F
:10440000032313AA19460CA817F07AFB7B69E06016
:104410009A68D3F80CA0D8F81430626103929A68B5
:10442000DB68226263620A93AB68514604936B684F
:10443000C4F818A005932B6909920693EB680793BB
:104440002B78079A08930898059BCDF800B017F0D1
:1044500066FB049B069A03990B90CDF800B0089870
:1044600017F05DFB0499069A431E01FB0322039B90
:104470000799D21A22EAE2720B9B42FA0BFC059AC8
:10448000013B02FB0313099AA3EB0A0323EAE3733C
:10449000824243FA0BF301D0FEF7F6F9DDE90A2177
:1044A0008A42F9D1C4E911C33B7F297D012B24D174
:1044B0000223012984F84C3003D1002323601B4BD5
:1044C00004E003290FD100232360194B6360336894
:1044D000394630465B6A98473368304641465B6AE6
:1044E000984700201EE0022904D1124B23604FF0B0
:1044F0007E53EBE76FF40003E0E704F12C03009335
:104500004246484604F128030BF078FF387F09281B
:10451000DDD0D9F814400BF003FF074902464846A6
:10452000A04758461BB0BDE8F08F00BFFFFF7F7F5C
:104530000000C040000080BF392102082DE9F74388
:10454000CE6804460F460EB9FEF79EF90B69002BA4
:10455000FAD0C56800222B6828469B6998472B68CB
:104560008046002239462846DB6998478146B8F1E3
:10457000000F0BD1214B0093702365692046204A20
:104580002049A847012003B0BDE8F08320B91E4BA5
:10459000009365697123F1E739462046FFF7F4FE81
:1045A000074650B998F81C30092B06D106F10800CF
:1045B00018F0BBF868B186F84C702B684146284665
:1045C0005B6A98472B68284649465B6A9847384695
:1045D000D9E70123F168706A86F84C300EF09AFD35
:1045E000011E07DD2046236C06F150029847002883
:1045F000E3D0C8E74FF0FF333365DEE7162102084A
:104600009E2302084920020884200208002313B5D3
:104610000446CDE90033044A044B054919F048F932
:10462000204602B010BD00BF3D450008C94000084B
:104630009BBF0108D0F8042138B5072A06D800230B
:1046400000F1C8049A4205D100200AE0064800F0B3
:104650006FF9FEE754F8045F8D4203D13A3350F806
:10466000230038BD0133EDE7EF1E020820292DE9B4
:10467000F04105460F461446984607D11F4819F0E9
:1046800099F8BDE8F0411E4819F094B803681B681A
:10469000984740B11B4819F08DF839461A48BDE8D3
:1046A000F04119F087B8D5F8C8C0BCF1060F06D99B
:1046B0003946164819F07EF807211548EFE74FF004
:1046C0001C0E0FCC0EFB0C5E0EF104060FC6D5F8C7
:1046D000043194E8070086E807000CF10102CEF8E7
:1046E0001870C5F8C82005EB83020133C2F8CC70FE
:1046F000C2F8E880C5F80431BDE8F081052402085D
:10470000362402084B2402087A2402089B2402085B
:10471000CC240208014B1868704700BF181403200E
:10472000014B1868704700BF14140320014B186830
:10473000704700BF10140320014B1868704700BF7A
:104740000C14032030B52D4D89B0D5E8AF4F14F0CF
:10475000010411D128461AF051F968B12848294BB3
:10476000294A2A490360C0F8C840C0F804411AF039
:1047700040F928461AF04EF901A8FEF7C3FD01AA38
:104780000321234B1E48FFF771FF01A8FFF718F91B
:1047900001AA04211F4B1A48FFF768FF01A8FEF782
:1047A000E7F901AA00211C4B1548FFF75FFF01A89C
:1047B000FFF72CFF01AA0121184B1148FFF756FF04
:1047C00001A80CF0E5FD01AA1621154B0C48FFF7D6
:1047D0004DFF01A8FFF7C6FA01AA0921114B0848AD
:1047E000FFF744FF01A800F035FA19210E4B0448E9
:1047F00001AAFFF73BFF024809B030BD3C1203207D
:10480000401203203C250208FCA60320AFBF01088C
:10481000DDD3010869D4010883D30108FFD401085E
:10482000B101010829020108D10201082DE9FF4167
:104830002F4CD4E8AF3FDB070BD420461AF0DEF84C
:1048400038B12C4A2C492D481AF0D3F820461AF0DA
:10485000E1F82A4B2A4E33602A4B1A68D7189B5826
:10486000FB1A1A88042A04D99B8813B1FB58032B1E
:1048700004D02549214818F038FDFEE7FFF762FF14
:104880008046224DD5E8AF4F14F0010415D12846DB
:104890001AF0B4F888B11E4B424639460093CDE970
:1048A00001441C4B1C4818F013FF124A1B491A48BC
:1048B0001AF09FF828461AF0ADF81748184D2860EE
:1048C0000CF05EF9044620B11649306818F00DFD71
:1048D000FEE7014628680CF029F8134B21461860C2
:1048E00028680CF039F8114B186004B0BDE8F0816D
:1048F00008140320FCA60320ADBF010800A7032075
:10490000181403202C2B0208DF240208481303206C
:10491000400D0300000400204C13032075D701084C
:1049200014140320FC240208101403200C14032088
:1049300038B5094B04461B7863B109F055FB0546B1
:1049400020461AF0F0F9214602462846BDE83840D4
:1049500018F0E3B838BD00BF6CA803202DE9F0477C
:104960000B6804460F46C56892B013B11B68012B53
:1049700011D00122CDE902323C4B01933C4B009314
:104980002F23656920463B4A3B49A847012420461E
:1049900012B0BDE8F0874B6813B11B68012B09D03A
:1049A0000122CDE90232314B0193344B009365690A
:1049B0003023E7E72B68002228469B699847064684
:1049C00040B92F4B0093322365692046294A2D496F
:1049D000A847DBE743691B68002B04DC2A4B0093E4
:1049E00065693323F1E72B68002239462846DB69E5
:1049F0009847804620B9254B009365693523E4E745
:104A0000D7F80C90B9F1000F04D1214B00936569E0
:104A10003723DAE7CDF800903B690246314620465D
:104A2000FCF7F6F83146044604A818F021FE41468A
:104A30000BA818F01DFE049F0BAA013F394604A8DD
:104A400017F0F3FA3B46824639460BAA04A817F042
:104A500057F82B683146C9E90EA05B6A284698478B
:104A60002B68414628465B6A984790E71F26020854
:104A7000E6250208502502085A210208F6250208F8
:104A8000162102084920020807260208842002088D
:104A9000212602082DE9F04F2DED048B0C460E68FF
:104AA00085B0013E31460090914620461A461D468B
:104AB00017F0BBFA33462A4631460746204617F020
:104AC0001FF800260446B046DFED299A03AAB84530
:104AD00004DB05B0BDEC048BBDE8F08F09EB860B61
:104AE0005846B0EE698A0021B500A1428DED038AD7
:104AF0000FDB129B4FF0000A1D442B46DFED1D8A91
:104B0000A24514DB0023A3422ADB08F10108264456
:104B1000DDE70346D3ED007AF4EEC87AF1EE10FA41
:104B2000D8BF1346043093ED008A0131DDE70193CD
:104B3000009BBBEC019AD3E9000113F071FC39EE44
:104B4000489A00EE100A20EE090A14F02FFC019B8F
:104B500078EE808AA3EC010A0AF1010A03AACFE7E2
:104B600095ED007AC7EE287A0133E5EC017ACAE7C1
:104B7000FFFF7FFF00000000F0B50022A5B00C464B
:104B8000054618F0B7FE214607460022284618F0D1
:104B9000B3FEE46806460CB9FDF776FE14AD0FCC03
:104BA0000FC50FCC0FC50FCC0FC594E80F0085E8DB
:104BB0000F00387A07282DD0092817D001283ED1B8
:104BC000394606A818F09EFE31460DA83C6818F03C
:104BD00099FE002EE0D033682246009306A90DAB63
:104BE00014A8FFF757FF002025B0F0BDD6F800C08D
:104BF000367A1A9D179C092E38682299CDE9015CF6
:104C0000169B239A009402D10EF09CFBEBE70EF06A
:104C1000A7FBE8E71E9B386804931F9BDDE922127F
:104C20000593DDE91634002EB6D03568029504AD43
:104C3000CDE900450EF0A2FB0028D4D0ACE70BF084
:104C40006FFB3A7A0146024818F0B4FD0120CBE729
:104C500096200208002313B50446CDE90033044A28
:104C6000044B054918F024FE204602B010BD00BFD9
:104C70005D490008794B000819C0010870B594B06F
:104C80000EAA1546164B03F110061446186859680B
:104C9000083303C4B3422246F7D118689B882060CA
:104CA000A3800AAB0222089300234FF40071CDE9E0
:104CB00006323322CDE902210A4ACDE904330192BA
:104CC0001422294600920848084A08F075FA9DF80F
:104CD00028301BB18921064817F0A3FA14B070BD23
:104CE000532602084C1803204C2003200D4D0008C9
:104CF0003C26020802289ABF024B53F820000248C3
:104D0000704700BF04A703207D100A082DE9F04F6B
:104D10008F488FB018F0D7FAFDF79AFD8D4CD4E884
:104D2000AF3FD90716D4204619F068FE90B1FFF7BF
:104D3000F1FC03230122CDE9013240F2DC530146AC
:104D400000934FF41672EB23834817F0B3F9204613
:104D500019F060FE804BDFF840A2CAF80030FFF780
:104D6000E5FC0546FFF7E8FC436904461A68022A99
:104D700015D15A68012A12D19968784B0329196014
:104D800003D0032276480BF08BF92B7F092B02D13D
:104D9000237F092B07D0734818F095FAFEE7724875
:104DA00018F091FAFEE71CF04AFA01210446084681
:104DB0001BF07CFC20461CF03DFA4FF000096B4FC5
:104DC0000AAB002201930823114600931046C82322
:104DD0001BF00AFA9DF828301BB1C221644817F075
:104DE00020FAFDF78DFCFFF7A1FC16F0DEF918B9EB
:104DF000FFF796FC0BF0BAFF8DF825908DF8269002
:104E00008DF827901CF0ADFD1CF08CF8DAF80050FE
:104E10000446FFF791FC0DF1270301930DF12603E2
:104E200001460093224628460DF1250300F0B8F80C
:104E30000028C5D19DF825509DF827102846FFF77A
:104E400059FF9DF826600246DFF85081C9B133460C
:104E5000294600948DB947480BF022F9464817F0CF
:104E6000D4FC464817F0D4FC04F2DC53C8F80030F8
:104E7000D8F80030002BA3D106E041480BF010F920
:104E8000F6E7D8F800305BB93878DFF8F880DFF85B
:104E9000F8B090B9C8F800503E70CBF800408FE7EA
:104EA0009C428DDB374B34481D60374BC8F80010EF
:104EB0003E701C6017F0ACFCDAE7DBF80030E31A58
:104EC000002B079338DD301A40B212F05DFF21F05D
:104ED00000430593079B0490184612F055FF0246C5
:104EE0000B46DDE9040113F0E3F813F099FA07EE3D
:104EF000900AB6EE007AF4EEC77AF1EE10FA3E7040
:104F0000CBF80040214E03DAD8F800309D4216D08D
:104F100004F5FA73C8F8005033603368002B3FF48F
:104F20004FAF1B4A1368E31A632B7FF749AF13484F
:104F3000146017F070FC43E7DFED167AD9E73368A9
:104F40009C42EADB00230D48336017F061FCE4E784
:104F5000692602081C14032020140320341803209F
:104F6000F8260208922702087B260208A182032065
:104F70003C260208FD270208FC2A0208142B02081E
:104F800029280208381803203C180320441803205D
:104F90004018032000000000E420032048180320EC
:104FA0002DE9F04FCDB002AF7B60BF4B04461868CF
:104FB0004E69C31D23F00703ADEB030D02ABFB608D
:104FC00033688E46022B154605D17168012902D13E
:104FD000B16881420CD000930246B368B34920689F
:104FE00018F083F9012007F59677BD46BDE8F08FEC
:104FF000D4F808646EB14FF0140CD4F804340CFBF0
:105000000343DB69934204DDA949206818F06DF978
:10501000E8E79EF81C30012B61D100229FEDA57AB4
:105020000EE0DEF81030F96803EB8203D3ED007A6E
:1050300067EE877AFCEEE77A17EE903A8B540132EE
:105040008242EEDB2369002B00F0A28020EAE072AE
:10505000F96807F12C00C7F808D019F057FE312E77
:1050600040F399809449A06918F03FF94FF0140972
:105070006368DFF860A2A5EB0308D4F808C4BCF1AC
:10508000000F09D0D4F804E409FB0E4303F11C0619
:10509000DB69984500F39680236988499C4580F236
:1050A000BB800A220B6801330B6093FBF2F102FB19
:1050B00011332BB9824818F006F9824818F003F929
:1050C00094F80C347A6813700023D7F850211370C9
:1050D000D7F854211370D7F808D0002083E7092BA4
:1050E0000ED07949206818F000F97BE7DEF810301F
:1050F000F9689B5C803B8B5401328242F6DBA1E76E
:105100000022FAE7FA68D25C524584BF92465EB24A
:1051100001338342F6DB3046FFF7ECFD237A53453B
:1051200080F0EB80002E40F0E880D4F81034E26884
:10513000EB1A934240F3E380012384F80C64C4F833
:105140001054D7F8542161491370614A07F12800BF
:1051500013681560EB1A2A460AF0B6FF002507F11E
:105160002803DFF84481DFF870911C18D8F800306C
:10517000AB4200F3C680002307F12800237018F02B
:10518000A2F87B681E70D7F8503183F800A0A4E71E
:105190009A461E46BDE7731CC4F80834D4F804349C
:1051A000BD621E441423312EC8BF323E03FB0646A7
:1051B00007F1280C1C36BCE80F000FC6DCF80030E5
:1051C000336053E7BCF1000F08DC5146A06918F0CA
:1051D0008CF807F1140016F063FF4EE707F1280B77
:1051E0000FCEABE80F000EF10103322BA8BF002356
:1051F000366807F1280ECBF80060C4F804340CF1CF
:10520000FF3307F1140CC4F80834BEE80F00ACE813
:105210000F00CCF8006030E700224FF0140B9646E8
:10522000214B0A60D3F800804FEA8803073323F04C
:105230000703ADEB030D0DF10809E6450CDB002378
:10524000A9F10402434549DB00239A461E46434523
:105250004BDBD7F808D05EE7D4F8046407F1280ADE
:105260007644312EC8BF323E0BFB06461C360FCEAD
:10527000AAE80F0000213368A9F10406CAF800303B
:1052800007F12C03414502DB0EF1010ED5E71A7838
:10529000BEF1000F04D146F8042F01310133F1E7CC
:1052A00070680244F7E700BF341803207228020830
:1052B000D628020800007F438D290208EC20032035
:1052C000EA290208422A020850290208932A020801
:1052D000E8200320C1290208A12A020852F8041F6D
:1052E0000133B1FBFCF11160ACE759F823205245C2
:1052F00084BF5EB292460133A9E7002321E733461B
:105300001FE7FB6820465A5D49460AF0DDFE04347B
:1053100001352BE7064B1B681A7A022A04D812B112
:105320001B68044A13607047032AF9D0704700BF16
:1053300010A70320F020032070B51F4DA2B00BACC6
:105340000FCD0FC495E80F0084E80F0000244FF440
:105350007023CDE902440494019313AD01AE0FCE46
:105360000FC5164BCDE9074409942B60144B18ADBB
:10537000069306AE0FCE0FC52022124B12482B60AB
:10538000124B13A91D93124B2094CDE91E23114BF0
:105390000BAA2193104B08F0DFFE044618B1BA2186
:1053A0000E4816F03EFF00214FF4E13016F01DFFCD
:1053B000204622B070BD00BFDC2A02083C00015B21
:1053C00001000F004400015B0C220320A282032095
:1053D0000001010024A70320F4200320A62A0208CC
:1053E00029B9074B186803684BB109F079BE012948
:1053F00005D1034B186803680BB117F06DBC7047FB
:1054000038A7032008B5044904480AF067F9BDE845
:105410000840FFF791BF00BF3CA7032038220320BC
:10542000014808F0D3BF00BF0C22032008B5044890
:1054300017F0E8F9BDE80840024817F0E3B900BFEB
:10544000142B0208FC2A02087FB5254A0828138875
:10545000ADF80030ADF80430ADF80830ADF80C30E0
:105460004FF42063ADF810305388ADF814300ADCE7
:1054700000280EDD013807280BD8DFE800F00C15F6
:105480000A1A0A0A0A1E202821D0402823D01028F0
:1054900017D0E12116E001220421684604F0A4F9A6
:1054A000002007B05DF804FB042101220DEB010090
:1054B000F4E70122042102A8F0E70122042103A855
:1054C000ECE7CA21074816F0ACFE0E20E9E70122FE
:1054D000042104A8E2E70122042105A8DEE700BFB9
:1054E000E5090A0888090A0808B506481CF086F983
:1054F00016F002FE4020FFF7A7FFBDE8084000F0CD
:1055000049BA00BF64160A0801481CF077B900BF09
:1055100064160A08F0B54B1E012B07460E468DB0E7
:1055200000F29080DFF858C103AC65460FCD0FC480
:105530000FCD0FC42B6844482360BCF82430BF0152
:10554000ADF80030BCF82630ADF80430BCF8283097
:10555000ADF808301CF052F93C481CF04FF900221D
:105560000121684604F040F9042100220DEB0100FE
:1055700004F03AF90022042102A804F035F90523C9
:105580008DF80C3001238DF820304FF44073012E3C
:1055900003A92F4808BF8DF82B60ADF82830059778
:1055A00007F0A4F80D222B4B1A622B4A1A634FF016
:1055B00003125A6302F500325A6204F061FB0021C3
:1055C000264804F0E5FA044618B1012420460DB03F
:1055D000F0BD234A012ED37823F03C0343F034037B
:1055E000D370D37C23F03C0343F03403D37412D143
:1055F00001461C4804F0CCFA0028E6D11A4AD378B8
:1056000023F03C0343F03403D370D37C23F03C03FA
:1056100043F03403D3741BF012FE01210546084603
:105620001BF044F828461BF005FE104B104A1E7074
:10563000002313700F4A13700F4A137001220F4B8F
:105640001A70C3E72124C1E764160A0854160A0831
:1056500000000A5000C80350030004004422032045
:1056600064A703204022032044A70320C282032012
:10567000C6820320C5820320C4820320C382032084
:10568000EC090A08184B73B51B78002B28D0174D6E
:105690002C783CBB164A174E136817483340034317
:1056A0001360136915493340034315489160136132
:1056B00091610094134B1449006804F015FB134BDF
:1056C0001B78012B07D1124800942346114A124936
:1056D000006804F009FB012300202B7002B070BDAC
:1056E0001120FBE70220F9E7C3820320C4820320D4
:1056F00064A703200F80FFCFF07F00309A82032041
:10570000442203207558000894A70320C282032076
:105710004022032044A7032084A70320184B2DE92F
:10572000F0411B7804460D4616461BB3154B1B78FB
:1057300013BB154F3B78FBB9DFF8608098F8003059
:105740004B43B3F5006F19D8104B1B780BB9FFF71B
:1057500099FF98F8003000205D430D4B1D600D4B04
:105760001C6004EB45045C600B4B1E6001233B7026
:10577000BDE8F0811120FBE70220F9E72120F7E7DF
:10578000C3820320C6820320C5820320C482032073
:105790004C220320502203205C220320C2820320DB
:1057A00010B50C4C237893B10B4B186819F04CFDD5
:1057B0000A4B1B78012B03D1094B186819F044FDE3
:1057C0000020084B20701870074B187010BD022085
:1057D000FCE700BFC482032044220320C2820320CE
:1057E00040220320C6820320C582032030B5002456
:1057F0001B4B85B0DA8C1B4DADF804209A8C1B8DA9
:10580000ADF80820ADF80C30FFF7CAFF284606F0C7
:10581000D5FE224621466C6501A803F0E5FF22462D
:10582000214602A803F0E0FF2246214603A803F028
:10583000DBFF0D4B186804F0FDF90C4B186804F001
:10584000F9F91BF0FCFC0546214601201AF02EFF59
:1058500028461BF0EFFC2046054B1C7005B030BD00
:10586000EC090A0800000A504422032040220320C9
:10587000C3820320F8B53B4D2B78002B42D03A4829
:1058800011F0010F00F1100308BF1946374E384BD5
:1058900032681C6818BF0146A2422CD2CB786FF345
:1058A0000513CB70334B1B6803EB42038B60A31AC9
:1058B000B3F5006F0B8817D940F2FF7402F5006250
:1058C00064F30E130B803260C37803F03003302B87
:1058D00008D1C37C03F03003302B03D100232B709D
:1058E000FFF75EFF0120F8BD671EBA1A62F30E13C0
:1058F0000B803460E8E70A681F4B13430B601F4BB3
:105900008B60E1E71E4B1B78002BEBD0C943164898
:1059100001F0010300EB0314E2781D01C2F3011250
:10592000032A0FD1124A46591168164A0139C1F3A8
:105930000A01324042EA01124251134A52F823301E
:10594000A360CFE7114A1268002ACBD0104908485B
:1059500009780068B0FBF1F10B4850F8230090473C
:10596000C0E700BFC682032064A7032048220320AB
:105970004C22032058220320F07F00309A8203201B
:10598000C58203200F80FFCF502203205C2203201A
:10599000C28203202DE9F047544E96B0354609AC3B
:1059A0000FCD0FC42B6806F1140523600EAC0FCD8C
:1059B0000FC495E80F00DFF84C8184E80F004C48D5
:1059C0001BF01CFF40461BF019FF4FF48073494F3A
:1059D000ADF83C30484B38460B9309A90EAB0D93FC
:1059E00006F076F904214FF4E065B6F834A00DEB2B
:1059F00001000122ADF804A003F0F6FEB6F83690DF
:105A00000022012102A8ADF8089003F0EDFE368FC8
:105A10000122042103A8ADF80C6003F0E5FE012289
:105A2000042104A8354CADF8105003F0DDFE344BD2
:105A30004FF44870C4F8C8344FF00213C4F8C434AB
:105A400003F58033C4F8CC341C23C4F8B4340AF012
:105A500067F808A8ADF8205003F03AFF14200AF0C8
:105A60005FF808A8ADF8205003F002FF23200AF0E9
:105A700057F808A8ADF8205003F02AFFB92138469E
:105A800016F077FF08A8ADF8205003F0F1FE0022D1
:105A900005A81146ADF814A003F0A6FE002206A842
:105AA0001146ADF8189003F09FFE0122002107A8CF
:105AB000ADF81C6003F098FE0122002108A8ADF8A3
:105AC000205003F091FE384605F0BAFD0023404611
:105AD000C4F8B434C4F8C834C4F8C434C4F8CC34FA
